:1000000004EF02F00000000000EF00F0000000002C
:0C00100000000000000000000AEF02F0F9
:0A001C00530E0D6E0D2EFED71200DC
:10002600240E0C6EB50E0D6E0D2EFED70C2EFCD7C3
:06003600000000001200B2
:0C003C00000000000000000000001200A6
:10004800000172BF02D0839A01D0838A72BD02D0A8
:10005800839801D0838872BB02D0839601D08386AF
:1000680072B902D0839401D0838462B702D08380AE
:1000780001D083908382DEDF839272B702D0839AA5
:1000880001D0838A72B502D0839801D0838872B375
:1000980002D0839601D0838672B102D0839401D0B6
:1000A800838462B702D0838001D083908382C2DFC9
:0E00B800839262A702D0B3DF01D0ACDF12004A
:0600C6000001629112002E
:0E00CC000001629771C072F0B9DF6287120006
:1000DA00000162A103D0010E006E01D0006A120075
:1000EA0010D0800E00016C6F1AD0C00E6C6F17D042
:1000FA00940E6C6F14D0D40E6C6F11D0800E6C6F8E
:10010A000ED000016C51010AECE06C51020AEDE0DC
:10011A006C51030AEDE06C51040AEDE0EFD76D056E
:10012A00006E6C51002600C06CF000C072F087DFD0
:10013A006297706B70516E25E96E000E6F21EA6E40
:10014A00EE520BE070516E25E96E000E6F21EA6ED9
:0E015A00EECF71F0B6DF702BEDD7628712008A
:0A016800AEDF010E726F6CDF1200B3
:100172000B6A0A6A096A00500402F4CF09F0F3CF4D
:1001820008F001500502F4CF0BF0F3CF0AF0005053
:100192000502F3500926F4500A22E86A0B220150A4
:1001A2000402F3500926F4500A22E86A0B2208C01E
:1001B20000F009C001F00AC002F00BC003F0120007
:1001C200000162A503D0010E006E01D0006A120088
:0601D2000001629312001F
:1001D8009388938A938C938E0001629362956291BF
:0201E800120003
:1001EA0068C066F069C063F06AC065F06BC067F00A
:0201FA001200F1
:1001FC0095929590959495969598959A83928390CF
:10020C00839A83988396839408DF07DF06DF8386BF
:10021C00838483820DDF839200DF838209DF8392E4
:10022C00FCDE838205DF8392F8DE8394838200DF19
:10023C008392F3DE8382FCDE83928396838A8382AD
:10024C00F7DE8392EADE839A83848382F1DE8392E3
:10025C0083948382EDDE8392E0DE8382E9DE8392F7
:10026C0083848382E5DE8392D8DE83948382E0DE0E
:10027C008392838A8388838683848382D9DE839264
:08028C00CCDE000162871200C4
:10029400880ED56EB10ED76EE00ED66EF2AEF28E2B
:1002A400F2ACF28CD0AED08EF28AF194F2941200B9
:0602B40066C000F012001C
:0602BA0000016295120034
:1002C000000162A303D0010E006E01D0006A12008B
:1002D00004DF005201E048DF010E6C6F010E6D6F0C
:1002E000190E6E6F000E6F6F00DF020E6C6F020E44
:1002F0006D6F140E006E000E016E68C004F0000EEB
:10030000056E37DF260E00246E6F000E01206F6F22
:04031000ECDE12000D
:0C031400B10ED76EE00ED66EF29412000F
:10032000000164B102D081B8648164B302D081BAA3
:10033000648364B502D081BC648564B702D081BE99
:10034000648764A104D081B802D06491628364A3FD
:100350000BD081BA09D064936651635D05E26651A2
:10036000655D02E36751665F64A50BD081BC09D06F
:1003700064956551665D05E26351665D02E3675110
:10038000662764A704D081BE02D0649762851200FC
:10039000926A936A33DF0C0E726F56DE010E726F33
:0803A00053DE78DF19DF1200C3
:1003A8000001686B696B020E6A6F010E6B6F19DFD3
:1003B80083DF00521BE180DF005204E0FEDE0052C2
:1003C80001E005D073DF00C068F07EDFF4D7F5DE0A
:1003D80000520BE06EDF6ADF02D007D006D0005073
:1003E800000AFBE00050010AF9E0E2D7EEDE120055
:1003F8000900F5CFE6FF0006FBE10106F9E112006E
:0C04080043EC02F0C1DFCCDFFED7FFD7D1
:1004140000C018F0156ED8CF16F0E0CF17F0F2A494
:1004240002D076DF7BDF1750E06E1650D86E153A97
:08043400153818C000F010009B
:1004860010EE19F0490E006E010E016E3C0EF66E6E
:0E049600040EF76E000EF86EFCEC01F0120082
:0D043C002D3E4D4F4E5441444F5241530050
:100449002D3E464941540000000000000000000014
:10045900000000002D3E464F5244000000000000FD
:1004690000000000000000002D3E474D0000000084
:0C04790000000000000000000000000077
:020000040030CA
:0E000000000C1F1EFF0381FF0FC00FE00F401A
:00000001FF
