:100000000BEF02F00000000000EF00F00000000025
:0C001000000000000000000011EF02F0F2
:10001C00240E0C6EB50E0D6E0D2EFED70C2EFCD7CD
:06002C00000000001200BC
:0A003200530E0D6E0D2EFED71200C6
:0C003C00000000000000000000001200A6
:10004800000172BF02D0839A01D0838A72BD02D0A8
:10005800839801D0838872BB02D0839601D08386AF
:1000680072B902D0839401D0838462B702D08380AE
:1000780001D083908382DEDF839272B702D0839AA5
:1000880001D0838A72B502D0839801D0838872B375
:1000980002D0839601D0838672B102D0839401D0B6
:1000A800838462B702D0838001D083908382C2DFC9
:0E00B800839262A702D0AEDF01D0B7DF120044
:0600C6000001629112002E
:0E00CC000001629771C072F0B9DF6287120006
:1000DA00000162A103D0010E006E01D0006A120075
:1000EA0010D0800E00016C6F1AD0C00E6C6F17D042
:1000FA00940E6C6F14D0D40E6C6F11D0800E6C6F8E
:10010A000ED000016C51010AECE06C51020AEDE0DC
:10011A006C51030AEDE06C51040AEDE0EFD76D056E
:10012A00006E6C51002600C06CF000C072F087DFD0
:10013A006297706B70516E25E96E000E6F21EA6E40
:10014A00EE520BE070516E25E96E000E6F21EA6ED9
:0E015A00EECF71F0B6DF702BEDD7628712008A
:100168000B6A0A6A096A00500402F4CF09F0F3CF57
:1001780008F001500502F4CF0BF0F3CF0AF000505D
:100188000502F3500926F4500A22E86A0B220150AE
:100198000402F3500926F4500A22E86A0B2208C028
:1001A80000F009C001F00AC002F00BC003F0120011
:0A01B80086DF010E726F44DF1200B3
:0601C2000001629312002F
:0601C8000001628112003B
:1001CE00000162A503D0010E006E01D0006A12007C
:1001DE009388938A938C938E0001629362956291B9
:0201EE001200FD
:1001F00068C066F069C063F06AC065F06BC067F004
:020200001200EA
:1002020095929590959495969598959A83928390C8
:10021200839A83988396839400DFFFDEFEDE8386D3
:10022200838483820ADF8392F8DE838206DF8392ED
:10023200F4DE838202DF8392F0DE83948382FDDE2A
:100242008392EBDE8382F9DE83928396838A8382B2
:10025200F4DE8392E2DE839A83848382EEDE8392EB
:1002620083948382EADE8392D8DE8382E6DE8392FF
:1002720083848382E2DE8392D0DE83948382DDDE16
:100282008392838A8388838683848382D6DE839261
:08029200C4DE000162871200C6
:10029A00880ED56EB10ED76EE00ED66EF2AEF28E25
:1002AA00F2ACF28CD0AED08EF28AF194F2941200B3
:0602BA0066C000F0120016
:0602C0000001629512002E
:1002C600000162A303D0010E006E01D0006A120085
:1002D60001DF005201E06DDF010E6C6F010E6D6FE4
:1002E600190E6E6F000E6F6FFDDE020E6C6F020E42
:1002F6006D6F140E006E000E016E68C004F0000EE5
:10030600056E2FDF260E00246E6F000E01206F6F24
:04031600E9DE12000A
:0C031A00B10ED76EE00ED66EF294120009
:10032600000164B102D081B8648164B302D081BA9D
:10033600648364B502D081BC648564B702D081BE93
:10034600648764A105D081B803D06491628339DFE4
:1003560064A30CD081BA0AD064936651635D05E24A
:100366006651655D02E36751665F2BDF64A50CD0BD
:1003760081BC0AD064956551665D05E26351665D90
:1003860002E3675166271DDF64A705D081BE03D04F
:080396006497628516DF120076
:10039E00926A936A2FDF0C0E726F4FDE010E726F30
:0803AE004CDE74DF15DF1200C4
:1003B6000900F5CFE6FF0006FBE10106F9E11200B0
:1003C6000001686B696B020E6A6F010E6B6F0DDFC1
:1003D60077DF00521BE174DF005204E0F5DE0052C5
:1003E60001E005D067DF00C068F072DFF4D7ECDE0D
:1003F60000520BE062DF5EDF02D007D006D000506D
:10040600000AFBE00050010AF9E0E2D7D7DE12004D
:0C0416004AEC02F0C1DFD4DFFED7FFD7B4
:1004220000C018F0156ED8CF16F0E0CF17F0F2A486
:1004320002D072DF77DF1750E06E1650D86E153A91
:08044200153818C000F010008D
:1004940010EE19F0490E006E010E016E4A0EF66E52
:0E04A400040EF76E000EF86EDBEC01F0120095
:0D044A002D3E4D4F4E5441444F5241530042
:100457002D3E464941540000000000000000000006
:10046700000000002D3E464F5244000000000000EF
:1004770000000000000000002D3E474D0000000076
:0C04870000000000000000000000000069
:020000040030CA
:0E000000000C1F1EFF0381FF0FC00FE00F401A
:00000001FF
