:1000000096EF02F00000000000EF00F0000000009A
:0C00100000000000000000009CEF02F067
:0C001C00000000000000000000001200C6
:10002800240E0C6EB50E0D6E0D2EFED70C2EFCD7C1
:06003800000000001200B0
:0A003E00530E0D6E0D2EFED71200BA
:1000480000019DBF02D0839A01D0838A9DBD02D052
:10005800839801D083889DBB02D0839601D0838684
:100068009DB902D0839401D083847CB702D0838069
:1000780001D083908382CEDF83929DB702D0839A8A
:1000880001D0838A9DB502D0839801D083889DB31F
:1000980002D0839601D083869DB102D0839401D08B
:1000A80083847CB702D0838001D083908382B2DFBF
:0E00B80083927CA702D0B4DF01D0BDDF12001E
:0600C60000017C95120010
:0E00CC0000017C979CC09DF0B9DF7C8712007C
:0A00DA00F5DF010E9D6FB3DF120089
:1000E40010D0800E0001976F1AD0C00E976F17D0F2
:1000F400940E976F14D0D40E976F11D0800E976F13
:100104000ED000019751010AECE09751020AEDE08C
:100114009751030AEDE09751040AEDE0EFD79805F3
:10012400006E9751002600C097F000C09DF08ADF52
:100134007C979B6B9B519925E96E000E9A21EA6E80
:10014400EE520BE09B519925E96E000E9A21EA6E5E
:0E015400EECF9CF0B9DF9B2BEDD77C8712001D
:100162000B6A0A6A096A00500402F4CF09F0F3CF5D
:1001720008F001500502F4CF0BF0F3CF0AF0005063
:100182000502F3500926F4500A22E86A0B220150B4
:100192000402F3500926F4500A22E86A0B2208C02E
:1001A20000F009C001F00AC002F00BC003F0120017
:1001B20000017CA503D0010E006E01D0006A12007E
:1001C200F7DF005201E088DF010E976F010E986F92
:1001D200190E996F000E9A6F84DF020E976F020E4E
:1001E200986F140E006E000E016E96C004F0000EA1
:1001F200056EB6DF3E0E0024996F000E01209A6F45
:0402020070DF120097
:1002060000017CA303D0010E006E01D0006A12002B
:1002160000017CA103D0010E006E01D0006A12001D
:0602260000017C931200B0
:06022C0000017C911200AC
:10023200E9DF005203E0010E006E07D0EBDF00524F
:0C02420003E0010E006E01D0006A120003
:10024E00B1DF005201E042DF030E976F010E986F8F
:0C025E00260E996F000E9A6F3EDF120012
:10026A00A3DF005201E034DF030E976F010E986F8F
:0C027A002E0E996F000E9A6F30DF1200FC
:060286007DC000F0120033
:10028C00F250026EF29E0500FF6A0150FE6E0050A5
:08029C00FD6E02BEF28E12009D
:1002A40086DF005201E017DF030E976F010E986F8F
:0C02B400360E996F000E9A6F13DF1200D7
:1002C00095929590959495969598959A839283900A
:1002D000839A839883968394A7DEA6DEA5DE838621
:1002E000838483829BDE83929FDE838297DE839268
:1002F0009BDE838293DE839297DE839483828EDEFD
:10030000839292DE83828ADE83928396838A8382BB
:1003100085DE839289DE839A838483827FDE839263
:10032000839483827BDE83927FDE838277DE839277
:100330008384838273DE839277DE839483826EDE8E
:100340008392838A838883868384838267DE839211
:080350006BDE00017C87120046
:10035800880ED56EB10ED76EE00ED66EF2AEF28E66
:10036800F2ACF28CD0AED08EF28AF194F2941200F4
:0603780000017C8512006B
:10037E004BDF00522FE156DF00520DE17DDF92C0C0
:10038E00E1FF93C0E2FF00C0E6FF90C000F091C015
:10039E0001F075DFF0D730DF00521BE03DDF6CDF80
:1003AE0000C001F0000E026E0136019002360136D9
:1003BE000190023601509425E96E02509521EA6EA5
:1003CE00EECF00F0EECF01F0EECF02F0EECF03F065
:0803DE0002D0CED724DF12008B
:1003E60090C07DF091C07EF092C07BF093C07AF011
:0203F6001200F3
:1003F8009388938A938C938E00017C917C937C954F
:020408001200E0
:0C040A00B10ED76EE00ED66EF294120018
:1004160000017FB102D081B87F817FB302D081BA5B
:100426007F837FB502D081BC7F857FB702D081BE36
:100436007F877FA105D081B803D07F917C8199DF2A
:100446007FA30CD081BA0AD07F937D517E5D05E2F1
:100456007D517B5D02E37A517D5F8BDF7FA50CD0FA
:1004660081BC0AD07F957B517D5D05E27E517D5D25
:1004760002E37A517D277DDF7FA705D081BE03D0B9
:080486007F977C8376DF1200F2
:10048E000900F5CFE6FF0006FBE10106F9E11200D7
:10049E00A40E0001846F020E856F000E866F000E93
:1004AE00876F4E0E886F020E896F000E8A6F000ED8
:1004BE008B6F6A0E8C6F020E8D6F000E8E6F000E9C
:1004CE008F6F906B916B020E926F010E936F84DFA4
:1004DE00C20E906F010E916F960E926F000E936F7B
:1004EE00840E946F000E956F43DF00C080F001C044
:1004FE0081F002C082F003C083F080C000F081C0A2
:06050E0001F0BDDE120049
:10051400926A936AD3DE0C0E9D6F94DD010E9D6F7B
:0805240091DD18DF67DF120012
:0C052C00E1EC02F0F1DFB5DFFED7FFD7F5
:1005380000C018F0156ED8CF16F0E0CF17F0F2A46F
:1005480002D05FDF64DF1750E06E1650D86E153AA0
:08055800153818C000F0100076
:1005C20010EE19F0610E006E010E016E600EF66EF5
:0E05D200050EF76E000EF86E47EC02F01200F8
:0D0560002D3E4D4F4E5441444F524153002B
:08056D002D3E4D656E75320054
:080575002D3E4D656E7533004B
:08057D002D3E4D656E75310045
:100585002D3E4649415400000000000000000000D7
:10059500000000002D3E464F5244000000000000C0
:1005A50000000000000000002D3E474D0000000047
:0C05B5000000000000000000000000003A
:020000040030CA
:0E000000000C1F1EFF0381FF0FC00FE00F401A
:00000001FF
