:1000000019EF02F00000000000EF00F00000000017
:0C00100000000000000000001FEF02F0E4
:0A001C00530E0D6E0D2EFED71200DC
:10002600240E0C6EB50E0D6E0D2EFED70C2EFCD7C3
:06003600000000001200B2
:0C003C00000000000000000000001200A6
:10004800000174BF02D0839A01D0838A74BD02D0A4
:10005800839801D0838874BB02D0839601D08386AD
:1000680074B902D0839401D0838468B102D08380AC
:1000780001D083908382DEDF839274B702D0839AA3
:1000880001D0838A74B502D0839801D0838874B371
:1000980002D0839601D0838674B102D0839401D0B4
:1000A800838468B102D0838001D083908382C2DFC9
:0E00B800839268A102D0B3DF01D0ACDF12004A
:0E00C6000001689173C074F0BCDF6881120005
:1000D4000B6A0A6A096A00500402F4CF09F0F3CFEC
:1000E40008F001500502F4CF0BF0F3CF0AF00050F2
:1000F4000502F3500926F4500A22E86A0B22015043
:100104000402F3500926F4500A22E86A0B2208C0BC
:1001140000F009C001F00AC002F00BC003F01200A5
:1001240010D0800E00016E6F1AD0C00E6E6F17D003
:10013400940E6E6F14D0D40E6E6F11D0800E6E6F4D
:100144000ED000016E51010AECE06E51020AEDE09E
:100154006E51030AEDE06E51040AEDE0EFD76F052E
:10016400006E6E51002600C06EF000C074F06ADFAD
:100174006891726B72517025E96E000E7121EA6EFE
:10018400EE520BE072517025E96E000E7121EA6E99
:0E019400EECF73F096DF722BEDD7688112006C
:0601A2000001699112004A
:1001A800000169A703D0010E006E01D0006A120099
:0601B8000001699712002E
:1001BE00010E00016E6F010E6F6F570E706F000E05
:1001CE00716FA9DF020E6E6F020E6F6F140E006E4E
:1001DE00000E016E6AC004F0000E056E74DF1B0E79
:0E01EE000024706F000E0120716F95DF12006B
:1001FC00880ED56EB10ED76EE00ED66EF2ACF28CC8
:0A020C00D0AED08EF28AF2941200F8
:0A0216009388938A938C938E120054
:1002200095929590959495969598959A83928390AA
:10023000839A839883968394F6DEF5DEF4DE8386D4
:1002400083848382FBDE8392EEDE8382F7DE8392F9
:10025000EADE8382F3DE8392E6DE83948382EEDE3F
:100260008392E1DE8382EADE83928396838A8382AD
:10027000E5DE8392D8DE839A83848382DFDE8392F5
:1002800083948382DBDE8392CEDE8382D7DE839209
:1002900083848382D3DE8392C6DE83948382CEDE20
:1002A0008392838A8388838683848382C7DE839252
:0802B000BADE000168811200B2
:0602B80066C000F0120018
:1002BE006AC066F06BC067F06CC064F06DC065F02C
:0202CE0012001C
:1002D000000169A103D0010E006E01D0006A120076
:0C02E000B10ED76EE00ED66EF294120044
:1002EC00000169B102D081B8698169B302D081BAC9
:1002FC00698369B502D081BC698569B702D081BEBA
:10030C00698769A102D081A8699169A326D081BAB5
:10031C0024D069936551665D016E026A000E025A23
:10032C00800E0218006E800E005C02E16751015CC9
:10033C0010E36551665D016E026A000E025A800E72
:10034C000218006E800E005C02E16451015C01E257
:10035C0002D067C066F06551665F69A523D081BC89
:10036C0021D0699565516625016E026A000E022244
:10037C00800E006E800E0218005C02E10150645D7C
:10038C000DE365516625016E026A000E0222000E15
:10039C00021802E1000E011801E002D064C066F000
:0E03AC006551662769A702D081AE69971200DD
:1003BA00926A936A30DF0C0E746F41DE010E746F1D
:0803CA003EDE17DF23DF120005
:1003D2000900F5CFE6FF0006FBE10106F9E1120094
:1003E20000016A6B6B6B020E6C6F010E6D6F66DF44
:1003F2006EDF00521BE16BDF005204E0D4DE0052DC
:1004020001E005D058DF00C06AF0D8DEF4D7CBDEB9
:1004120000520BE0D0DE4FDF02D007D006D00050F2
:10042200000AFBE00050010AF9E0E2D7B9DE12004F
:0C04320060EC02F0C1DFD4DFFED7FFD782
:10043E0000C01AF001C019F002C018F0156ED8CF26
:10044E0016F0E0CF17F0F2A402D043DF48DF1750CA
:10045E00E06E1650D86E153A15381AC000F019C055
:08046E0001F018C002F01000BB
:1004C00010EE1BF0490E006E010E016E760EF66EF8
:0E04D000040EF76E000EF86EE9EC01F012005B
:100476002D3E4649415400000000000000000000E7
:10048600000000002D3E464F5244000000000000D0
:1004960000000000000000002D3E474D0000000057
:0C04A6000000000000000000000000004A
:0D04B2002D3E4D4F4E5441444F52415300DA
:020000040030CA
:0E000000000C1F1EFF0381FF0FC00FE00F401A
:00000001FF
