:10000000B1EF00F00000000000EF00F00000000081
:0C0010000000000000000000B4EF00F051
:0C001C00000000000000000000001200C6
:10002800240E0C6EB50E0D6E0D2EFED70C2EFCD7C1
:06003800000000001200B0
:0A003E009388938A938C938E12002E
:10004800880ED56EB10ED76EE00ED66EF2ACF28C7D
:0A005800D0AED08EF28AF2941200AE
:1000620095929590959495969598959A839283906A
:10007200839A839883968394D6DFD5DFD4DF8386F1
:1000820083848382CADF8392CEDF8382C6DF839238
:10009200CADF8382C2DF8392C6DF83948382BDDF9D
:1000A2008392C1DF8382B9DF83928396838A8382BC
:1000B200B4DF8392B8DF839A83848382AEDF839234
:1000C20083948382AADF8392AEDF8382A6DF839248
:1000D20083848382A2DF8392A6DF839483829DDF5F
:1000E2008392838A838883868384838296DF839242
:0600F2009ADF19801200E4
:1000F80018B002D081B8188018B202D081BA18821C
:1001080018B402D081BC188418B602D081BE1886F3
:1001180018A002D081A8189018A202D081AA18921B
:1001280018A402D081AC189418A602D081AE1896F3
:020138001200B3
:0C013A00B10ED76EE00ED66EF2941200EB
:100146000900F5CFE6FF0006FBE10106F9E1120022
:0C015600926A936A83DF75DF6FDF12008E
:06016200F9DFFFD7FFD713
:10016800156ED8CF16F0E0CF17F0F2A402D0E1DF79
:10017800BFDF1750E06E1650D86E153A15381000CC
:020000040030CA
:0E000000000C1F1EFF0381FF0FC00FE00F401A
:00000001FF
