:10000000C1EF02F00000000000EF00F0000000006F
:0C0010000000000000000000C7EF02F03C
:0C001C00000000000000000000001200C6
:10002800240E0C6EB50E0D6E0D2EFED70C2EFCD7C1
:06003800000000001200B0
:0A003E00530E0D6E0D2EFED71200BA
:100048000001A5BF02D0839A01D0838AA5BD02D042
:10005800839801D08388A5BB02D0839601D083867C
:10006800A5B902D0839401D083847CB702D0838061
:1000780001D083908382CEDF8392A5B702D0839A82
:1000880001D0838AA5B502D0839801D08388A5B30F
:1000980002D0839601D08386A5B102D0839401D083
:1000A80083847CB702D0838001D083908382B2DFBF
:0E00B80083927CA702D0B4DF01D0BDDF12001E
:0600C60000017C95120010
:0E00CC0000017C97A4C0A5F0B9DF7C8712006C
:0A00DA00F5DF010EA56FB3DF120081
:1000E40010D0800E00019F6F1AD0C00E9F6F17D0E2
:1000F400940E9F6F14D0D40E9F6F11D0800E9F6FFB
:100104000ED000019F51010AECE09F51020AEDE07C
:100114009F51030AEDE09F51040AEDE0EFD7A005DB
:10012400006E9F51002600C09FF000C0A5F08ADF3A
:100134007C97A36BA351A125E96E000EA221EA6E60
:10014400EE520BE0A351A125E96E000EA221EA6E46
:0E015400EECFA4F0B9DFA32BEDD77C8712000D
:100162000B6A0A6A096A00500402F4CF09F0F3CF5D
:1001720008F001500502F4CF0BF0F3CF0AF0005063
:100182000502F3500926F4500A22E86A0B220150B4
:100192000402F3500926F4500A22E86A0B2208C02E
:1001A20000F009C001F00AC002F00BC003F0120017
:1001B20000017CA503D0010E006E01D0006A12007E
:1001C200F7DF005201E088DF010E9F6F010EA06F82
:1001D200190EA16F000EA26F84DF020E9F6F020E36
:1001E200A06F140E006E000E016E9EC004F0000E91
:1001F200056EB6DF3E0E0024A16F000E0120A26F35
:0402020070DF120097
:1002060000017CA303D0010E006E01D0006A12002B
:1002160000017CA103D0010E006E01D0006A12001D
:0602260000017C931200B0
:06022C0000017C911200AC
:060232007DC000F0120087
:10023800BCDF005201E04DDF030E9F6F010EA06F7F
:0C0248002E0EA16F000EA26F49DF120005
:10025400AEDF005201E03FDF030E9F6F010EA06F7F
:0C026400360EA16F000EA26F3BDF1200EF
:10027000CADF005203E0010E006E07D0CCDF00524F
:0C02800003E0010E006E01D0006A1200C5
:10028C00F250026EF29E0500FF6A0150FE6E0050A5
:08029C00FD6E02BEF28E12009D
:1002A40086DF005201E017DF030E9F6F010EA06F7F
:0C02B400260EA16F000EA26F13DF1200D7
:1002C000880ED56EB10ED76EE00ED66EF2AEF28EFF
:1002D000F2ACF28CD0AED08EF28AF194F29412008D
:1002E0009388938A938C938E00017C917C937C9568
:0202F0001200FA
:0602F20000017C851200F2
:1002F80095929590959495969598959A83928390D2
:10030800839A8398839683948BDE8ADE89DE83863C
:10031800838483827FDE839283DE83827BDE839283
:100328007FDE838277DE83927BDE8394838272DE34
:10033800839276DE83826EDE83928396838A8382BB
:1003480069DE83926DDE839A8384838263DE83927F
:10035800839483825FDE839263DE83825BDE839293
:100368008384838257DE83925BDE8394838252DEAA
:100378008392838A83888386838483824BDE8392F5
:080388004FDE00017C8712002A
:1003900096C07DF097C07EF098C07BF099C07AF04F
:0203A000120049
:1003A20039DF00522FE163DF00520DE141DF9AC0D5
:1003B200E1FF9BC0E2FF00C0E6FF98C000F099C0D9
:1003C20001F063DFF0D71EDF00521BE02BDF30DFCE
:1003D20000C001F0000E026E0136019002360136B5
:1003E2000190023601509625E96E02509721EA6E7D
:1003F200EECF00F0EECF01F0EECF02F0EECF03F041
:0804020002D0CED712DF120078
:10040A0096C0E1FF97C0E2FF98C0E6FF99C0E6FFF9
:10041A00020E00019625E16E000E9721E26E9AC047
:10042A00E6FF9BC0E6FF9CC0E6FF9DC0E6FF120008
:0C043A00B10ED76EE00ED66EF2941200E8
:1004460000017FB102D081B87F817FB302D081BA2B
:100456007F837FB502D081BC7F857FB702D081BE06
:100466007F877FA105D081B803D07F917C813EDF55
:100476007FA30CD081BA0AD07F937D517E5D05E2C1
:100486007D517B5D02E37A517D5F30DF7FA50CD025
:1004960081BC0AD07F957B517D5D05E27E517D5DF5
:1004A60002E37A517D2722DF7FA705D081BE03D0E4
:0804B6007F977C831BDF12001D
:1004BE000900F5CFE6FF0006FBE10106F9E11200A7
:1004CE00540E00018A6F020E8B6F000E8C6F000EA1
:1004DE008D6FA40E8E6F020E8F6F000E906F000E3A
:1004EE00916F380E926F020E936F000E946F000E86
:1004FE00956F800E966F000E976F8A0E986F000E96
:10050E00996FC20E9A6F010E9B6F9E0E9C6F000E1E
:10051E009D6F74DF966B976B020E986F010E996F3D
:10052E0030DF060E006E960EE16E000EE26E800E4D
:10053E00E96E000EEA6EEECFE6FF0006FCE12ADF62
:10054E0000C086F001C087F002C088F003C089F0B9
:0C055E0086C000F087C001F092DE1200A1
:10056A00926A936AC4DE0C0EA56F69DD010EA56F4F
:08057A0066DDA1DEB0DE120017
:0C0582000CEC03F0F1DFA2DFFED7FFD786
:10058E0000C018F0156ED8CF16F0E0CF17F0F2A419
:10059E0002D04CDF51DF1750E06E1650D86E153A70
:0805AE00153818C000F0100020
:1006180010EE19F0610E006E010E016EB60EF66E48
:0E062800050EF76E000EF86E5FEC02F0120089
:0D05B6002D3E4D4F4E5441444F52415300D5
:0805C3002D3E4D656E753200FE
:0805CB002D3E4D656E753300F5
:0805D3002D3E4D656E753100EF
:1005DB002D3E464941540000000000000000000081
:1005EB00000000002D3E464F52440000000000006A
:1005FB0000000000000000002D3E474D00000000F1
:0C060B00000000000000000000000000E3
:020000040030CA
:0E000000000C1F1EFF0381FF0FC00FE00F401A
:00000001FF
