:100000001CEF02F00000000000EF00F00000000014
:0C001000000000000000000022EF02F0E1
:0C001C00000000000000000000001200C6
:0A002800530E0D6E0D2EFED71200D0
:10003200240E0C6EB50E0D6E0D2EFED70C2EFCD7B7
:06004200000000001200A6
:10004800000173BF02D0839A01D0838A73BD02D0A6
:10005800839801D0838873BB02D0839601D08386AE
:1000680073B902D0839401D0838464B502D08380AD
:1000780001D083908382CEDF839273B702D0839AB4
:1000880001D0838A73B502D0839801D0838873B373
:1000980002D0839601D0838673B102D0839401D0B5
:1000A800838464B502D0838001D083908382B2DFD9
:0E00B800839264A502D0B9DF01D0B2DF12003E
:0E00C6000001649572C073F0BCDF6485120007
:0600D4000001649312001C
:1000DA00000164A303D0010E006E01D0006A120071
:0A00EA00F4DF010E736FABDF1200AC
:1000F40010D0800E00016D6F1AD0C00E6D6F17D036
:10010400940E6D6F14D0D40E6D6F11D0800E6D6F80
:100114000ED000016D51010AECE06D51020AEDE0D0
:100124006D51030AEDE06D51040AEDE0EFD76E0561
:10013400006E6D51002600C06DF000C073F082DFC8
:100144006495716B71516F25E96E000E7021EA6E32
:10015400EE520BE071516F25E96E000E7021EA6ECC
:0E016400EECF72F0AEDF712BEDD76485120086
:100172000B6A0A6A096A00500402F4CF09F0F3CF4D
:1001820008F001500502F4CF0BF0F3CF0AF0005053
:100192000502F3500926F4500A22E86A0B220150A4
:1001A2000402F3500926F4500A22E86A0B2208C01E
:1001B20000F009C001F00AC002F00BC003F0120007
:1001C2008BDF005201E090DF010E6D6F010E6E6F4A
:1001D200550E6F6F000E706F8CDF020E6D6F020E88
:1001E2006E6F140E006E000E016E6CC004F0000EF5
:1001F200056EBEDF190E00246F6F000E0120706FB6
:0402020078DF12008F
:10020600F250026EF29E0500FF6A0150FE6E00502B
:08021600FD6E02BEF28E120023
:06021E00000164911200D2
:10022400000164A703D0010E006E01D0006A120021
:10023400000164A103D0010E006E01D0006A120017
:0602440062C000F0120090
:10024A009388938A938C938E000164916497649344
:02025A00120090
:10025C00880ED56EB10ED76EE00ED66EF2AEF28E63
:10026C00F2ACF28CD0AED08EF28AF194F2941200F1
:06027C0000016483120082
:10028200D8DF005219E1D5DF005204E0CADF005284
:1002920001E00DD0D6DF6AC0E1FF6BC0E2FF00C013
:1002A200E6FF68C000F069C001F0ACDFECD7B9DF4F
:0C02B200005201E002D0E4D7B1DF1200DE
:1002BE0068C062F069C063F06AC066F06BC067F038
:0202CE0012001C
:1002D00095929590959495969598959A83928390FA
:1002E000839A839883968394A4DEA3DEA2DE83861A
:1002F0008384838293DE83929CDE83828FDE83926B
:1003000098DE83828BDE839294DE8394838286DE02
:1003100083928FDE838282DE83928396838A8382B6
:100320007DDE839286DE839A8384838277DE839266
:100330008394838273DE83927CDE83826FDE83927A
:10034000838483826BDE839274DE8394838266DE91
:100350008392838A83888386838483825FDE839209
:0803600068DE00016485120053
:0C036800B10ED76EE00ED66EF2941200BB
:10037400000165B102D081B8658165B302D081BA4C
:10038400658365B502D081BC658565B702D081BE41
:10039400658765A105D081B803D0659164816CDF60
:1003A40065A30CD081BA0AD065936251635D05E2FE
:1003B4006251665D02E36751625F5EDF65A50CD042
:1003C40081BC0AD065956651625D05E26351625D48
:1003D40002E36751622750DF65A705D081BE03D0D1
:0803E4006597648749DF1200F0
:1003EC000900F5CFE6FF0006FBE10106F9E112007A
:1003FC000001686B696B020E6A6F010E6B6F59DF3F
:10040C00C20E686F010E696F6C0E6A6F000E6B6F17
:04041C0032DF1200B9
:10042000926A936A55DF0C0E736F0EDE010E736FC6
:080430000BDE14DF0ADF1200ED
:0C0438005BEC02F0F1DFDEDFFED7FFD747
:1004440000C018F0156ED8CF16F0E0CF17F0F2A464
:1004540002D088DF8DDF1750E06E1650D86E153A43
:08046400153818C000F010006B
:1004B60010EE19F0490E006E010E016E6C0EF66E0E
:0E04C600040EF76E000EF86EF6EC01F0120058
:10046C002D3E4649415400000000000000000000F1
:10047C00000000002D3E464F5244000000000000DA
:10048C0000000000000000002D3E474D0000000061
:0C049C0000000000000000000000000054
:0D04A8002D3E4D4F4E5441444F52415300E4
:020000040030CA
:0E000000000C1F1EFF0381FF0FC00FE00F401A
:00000001FF
