:1000000051EF02F00000000000EF00F000000000DF
:0C001000000000000000000057EF02F0AC
:0C001C00000000000000000000001200C6
:0A002800530E0D6E0D2EFED71200D0
:10003200240E0C6EB50E0D6E0D2EFED70C2EFCD7B7
:06004200000000001200A6
:10004800000181BF02D0839A01D0838A81BD02D08A
:10005800839801D0838881BB02D0839601D08386A0
:1000680081B902D0839401D0838464B502D083809F
:1000780001D083908382CEDF839281B702D0839AA6
:1000880001D0838A81B502D0839801D0838881B357
:1000980002D0839601D0838681B102D0839401D0A7
:1000A800838464B502D0838001D083908382B2DFD9
:0E00B800839264A502D0B9DF01D0B2DF12003E
:0E00C6000001649580C081F0BCDF64851200EB
:0600D4000001649312001C
:1000DA00000164A303D0010E006E01D0006A120071
:0A00EA00F4DF010E816FABDF12009E
:1000F40010D0800E00017B6F1AD0C00E7B6F17D01A
:10010400940E7B6F14D0D40E7B6F11D0800E7B6F56
:100114000ED000017B51010AECE07B51020AEDE0B4
:100124007B51030AEDE07B51040AEDE0EFD77C0537
:10013400006E7B51002600C07BF000C081F082DF9E
:1001440064957F6B7F517D25E96E000E7E21EA6EFA
:10015400EE520BE07F517D25E96E000E7E21EA6EA2
:0E016400EECF80F0AEDF7F2BEDD7648512006A
:100172000B6A0A6A096A00500402F4CF09F0F3CF4D
:1001820008F001500502F4CF0BF0F3CF0AF0005053
:100192000502F3500926F4500A22E86A0B220150A4
:1001A2000402F3500926F4500A22E86A0B2208C01E
:1001B20000F009C001F00AC002F00BC003F0120007
:1001C2008BDF005201E090DF010E7B6F010E7C6F2E
:1001D200550E7D6F000E7E6F8CDF020E7B6F020E5E
:1001E2007C6F140E006E000E016E7AC004F0000ED9
:1001F200056EBEDF190E00247D6F000E01207E6F9A
:0402020078DF12008F
:10020600F250026EF29E0500FF6A0150FE6E00502B
:08021600FD6E02BEF28E120023
:06021E00000164911200D2
:10022400000164A703D0010E006E01D0006A120021
:10023400000164A103D0010E006E01D0006A120017
:0602440062C000F0120090
:10024A009388938A938C938E000164916497649344
:02025A00120090
:10025C00880ED56EB10ED76EE00ED66EF2AEF28E63
:10026C00F2ACF28CD0AED08EF28AF194F2941200F1
:06027C0000016483120082
:10028200D8DF005232E1D5DF005204E0CADF00526B
:1002920001E00DD0D6DF76C0E1FF77C0E2FF00C0FB
:1002A200E6FF74C000F075C001F0ACDFECD7B9DF37
:1002B20000521AE0C6DF00C001F0000E026E0136E5
:1002C2000190023601360190023601507825E96E1E
:1002D20002507921EA6EEECF00F0EECF01F0EECFC0
:0E02E20002F0EECF03F002D0CBD798DF12006F
:1002F00074C062F075C063F076C066F077C067F0D6
:020300001200E9
:1003020095929590959495969598959A83928390C7
:10031200839A8398839683948BDE8ADE89DE838632
:10032200838483827ADE839283DE838276DE839283
:100332007FDE838272DE83927BDE839483826DDE34
:10034200839276DE838269DE83928396838A8382B6
:1003520064DE83926DDE839A838483825EDE83927F
:10036200839483825ADE839263DE838256DE839293
:100372008384838252DE83925BDE839483824DDEAA
:100382008392838A838883868384838246DE8392F0
:080392004FDE0001648512003A
:0C039A00B10ED76EE00ED66EF294120089
:1003A600000165B102D081B8658165B302D081BA1A
:1003B600658365B502D081BC658565B702D081BE0F
:1003C600658765A105D081B803D06591648153DF47
:1003D60065A30CD081BA0AD065936251635D05E2CC
:1003E6006251665D02E36751625F45DF65A50CD029
:1003F60081BC0AD065956651625D05E26351625D16
:1004060002E36751622737DF65A705D081BE03D0B7
:080416006597648730DF1200D6
:10041E000900F5CFE6FF0006FBE10106F9E1120047
:10042E00FF0E0001686FFF0E696F000E6A6F000EFF
:10043E006B6FFF0E6C6FFF0E6D6F000E6E6F000E0A
:10044E006F6FFF0E706FFF0E716F000E726F000EEA
:10045E00736F746B756B020E766F010E776F41DFE3
:10046E00C20E746F010E756F7A0E766F000E776F77
:0C047E00680E786F000E796FFDDE120032
:10048A00926A936A39DF0C0E816FD9DD010E816F92
:08049A00D6DDDFDED5DE120025
:0C04A20090EC02F0F1DFC2DFFED7FFD7C4
:1004AE0000C018F0156ED8CF16F0E0CF17F0F2A4FA
:1004BE0002D06CDF71DF1750E06E1650D86E153A11
:0804CE00153818C000F0100001
:1005200010EE19F0490E006E010E016ED60EF66E39
:0E053000040EF76E000EF86E0FEC02F01200D3
:1004D6002D3E464941540000000000000000000087
:1004E600000000002D3E464F524400000000000070
:1004F60000000000000000002D3E474D00000000F7
:0C050600000000000000000000000000E9
:0D0512002D3E4D4F4E5441444F5241530079
:020000040030CA
:0E000000000C1F1EFF0381FF0FC00FE00F401A
:00000001FF
