:100000006EEF00F00000000000EF00F000000000C4
:0A0010000000000000000000F3D71C
:10001C00240E0C6EB50E0D6E0D2EFED70C2EFCD7CD
:06002C00000000001200BC
:0C003200000000000000000000001200B0
:10003E0093929390939493969398939A819281909E
:10004E00819A819881968194E2DFE1DFE0DF8186FB
:10005E0081848182E7DF8192DADF8182E3DF819220
:10006E00D6DF8182DFDF8192D2DF81948182DADF77
:10007E008192CDDF8182D6DF81928196818A8182C3
:10008E00D1DF8192C4DF819A81848182CBDF81921C
:10009E0081948182C7DF8192BADF8182C3DF819230
:1000AE0081848182BFDF8192B2DF81948182BADF47
:1000BE008192818A8188818681848182B3DF819257
:0600CE00A6DF1580120000
:0800D400926A936AB2DF120088
:0400DC00FBDFFFD770
:020000040030CA
:0E000000000C1F1EFF8381FF0FC00FE00F409A
:00000001FF
