:10000000BDEF01F00000000000EF00F00000000074
:0C0010000000000000000000C3EF01F041
:0A001C00530E0D6E0D2EFED71200DC
:10002600240E0C6EB50E0D6E0D2EFED70C2EFCD7C3
:06003600000000001200B2
:0C003C00000000000000000000001200A6
:1000480000016BBF02D0839A01D0838A6BBD02D0B6
:10005800839801D083886BBB02D0839601D08386B6
:100068006BB902D0839401D0838463B102D08380BA
:1000780001D083908382DEDF83926BB702D0839AAC
:1000880001D0838A6BB502D0839801D083886BB383
:1000980002D0839601D083866BB102D0839401D0BD
:1000A800838463B102D0838001D083908382C2DFCE
:0E00B800839263A102D0B3DF01D0ACDF12004F
:0E00C600000163916AC06BF0BCDF6381120021
:1000D4000B6A0A6A096A00500402F4CF09F0F3CFEC
:1000E40008F001500502F4CF0BF0F3CF0AF00050F2
:1000F4000502F3500926F4500A22E86A0B22015043
:100104000402F3500926F4500A22E86A0B2208C0BC
:1001140000F009C001F00AC002F00BC003F01200A5
:1001240010D0800E0001656F1AD0C00E656F17D015
:10013400940E656F14D0D40E656F11D0800E656F68
:100144000ED000016551010AECE06551020AEDE0B0
:100154006551030AEDE06551040AEDE0EFD7660549
:10016400006E6551002600C065F000C06BF06ADFC8
:100174006391696B69516725E96E000E6821EA6E27
:10018400EE520BE069516725E96E000E6821EA6EB4
:0E019400EECF6AF096DF692BEDD76381120083
:1001A200010E0001656F010E666F180E676F000E7B
:1001B200686FB7DF020E656F020E666F140E006E77
:1001C200000E016E64C004F0000E056E82DF250E83
:0E01D2000024676F000E0120686FA3DF12008B
:0601E0000001629712000D
:0601E6000001629112000D
:1001EC00000162A703D0010E006E01D0006A12005C
:1001FC0095929590959495969598959A83928390CF
:10020C00839A83988396839408DF07DF06DF8386BF
:10021C00838483820DDF839200DF838209DF8392E4
:10022C00FCDE838205DF8392F8DE8394838200DF19
:10023C008392F3DE8382FCDE83928396838A8382AD
:10024C00F7DE8392EADE839A83848382F1DE8392E3
:10025C0083948382EDDE8392E0DE8382E9DE8392F7
:10026C0083848382E5DE8392D8DE83948382E0DE0E
:10027C008392838A8388838683848382D9DE839264
:08028C00CCDE000163811200C9
:10029400880ED56EB10ED76EE00ED66EF2ACF28C2F
:0A02A400D0AED08EF28AF294120060
:0602AE0061C000F0120027
:0A02B4009388938A938C938E1200B6
:1002BE00000162A103D0010E006E01D0006A12008F
:0C02CE00B10ED76EE00ED66EF294120056
:1002DA00000162B102D081B8628162B302D081BAF0
:1002EA00628362B502D081BC628562B702D081BEE8
:1002FA00628762A102D081A8629162A302D081AA18
:10030A00629362A502D081AC629562A702D081AEE7
:04031A0062971200D4
:0C031E00926A936A6CDFB7DFC6DF120042
:10032A000900F5CFE6FF0006FBE10106F9E112003C
:10033A00C1DF00521BE1BEDF005204E052DF00526F
:10034A0001E005D0AFDF00C064F026DFF4D749DF53
:10035A0000520BE040DFA6DF02D007D006D00050E3
:10036A00000AFBE00050010AF9E0E2D737DF120089
:0C037A00F8EC01F0CFDFDCDFFED7FFD78E
:10038600156ED8CF16F0E0CF17F0F2A402D09CDF9E
:10039600A1DF1750E06E1650D86E153A15381000CA
:1003F00010EE18F0490E006E010E016EA60EF66E9C
:0E040000030EF76E000EF86E95EC01F0120080
:0D03A6002D3E4D4F4E5441444F52415300E7
:1003B3002D3E464F524400000000000000000000A4
:1003C300000000002D3E464941540000000000009B
:1003D30000000000000000002D3E474D000000001B
:0C03E3000000000000000000000000000E
:020000040030CA
:0E000000000C1F1EFF0381FF0FC00FE00F401A
:00000001FF
