:10000000FCEF00F00000000000EF00F00000000036
:0A0010000000000000000000F3D71C
:0C001C00000000000000000000001200C6
:10002800240E0C6EB50E0D6E0D2EFED70C2EFCD7C1
:06003800000000001200B0
:0A003E00530E0D6E0D2EFED71200BA
:1000480046BE02D0839A01D0838A46BC02D08398E8
:1000580001D0838846BA02D0839601D0838646B8F9
:1000680002D0839401D083843FB002D0838001D032
:1000780083908382CFDF839246B602D0839A01D0E1
:10008800838A46B402D0839801D0838846B202D0CE
:10009800839601D0838646B002D0839401D08384AE
:1000A8003FB002D0838001D083908382B3DF8392F4
:0C00B8003FA002D0B5DF01D0BEDF120077
:0C00C4003F9045C046F0BEDF3F801200B8
:1000D00095929590959495969598959A83928390FC
:1000E000839A8398839683949FDF9EDF9DDF838628
:1000F0008384838293DF839297DF83828FDF83926F
:1001000093DF83828BDF83928FDF8394838286DF0A
:1001100083928ADF838282DF83928396838A8382BB
:100120007DDF839281DF839A8384838277DF83926A
:100130008394838273DF839277DF83826FDF83927E
:10014000838483826BDF83926FDF8394838266DF95
:100150008392838A83888386838483825FDF83920A
:0601600063DF3F80120086
:100166000900F5CFE6FF0006FBE10106F9E1120002
:08017600926A936AAADF1200ED
:10017E000FD0800E406E19D0C00E406E16D0940E69
:10018E00406E13D0D40E406E10D0800E406E0DD047
:10019E004050010AEEE04050020AEEE04050030AE1
:1001AE00EEE04050040AEEE0F0D74104006E4050FD
:1001BE00002600C040F000C046F03FDF3F90446A8A
:1001CE0044504224E96E000E4320EA6EEE520BE0DC
:1001DE0044504224E96E000E4320EA6EEECF45F005
:0A01EE006ADF442AEDD73F801200BB
:1001F8003AEC01F0BCDF010E406E010E416E150EA7
:10020800426E000E436EB7DF020E406E010E416E65
:100218002A0E426E000E436EAEDF030E406E010ED4
:10022800416E2A0E426E000E436EA5DF040E406E2C
:10023800010E416E150E426E000E436E9CDFFFD715
:02024800FFD7DE
:1002740010EE15F02A0E006E010E016E4A0EF66E97
:0E028400020EF76E000EF86EB3EC00F01200E2
:10024A002D2D2D2D2D2D2D2D2D2D2D2D2D2D2D2DD4
:05025A002D2D2D2D00EB
:10025F002D2D2D2D204A43204D4F44554C4F5320CB
:05026F002D2D2D2D00D6
:020000040030CA
:0E000000000C1F1EFF0381FF0FC00FE00F401A
:00000001FF
