:1000000023EF02F00000000000EF00F0000000000D
:0C001000000000000000000029EF02F0DA
:0A001C00530E0D6E0D2EFED71200DC
:10002600240E0C6EB50E0D6E0D2EFED70C2EFCD7C3
:06003600000000001200B2
:0C003C00000000000000000000001200A6
:10004800000174BF02D0839A01D0838A74BD02D0A4
:10005800839801D0838874BB02D0839601D08386AD
:1000680074B902D0839401D0838465B302D08380AD
:1000780001D083908382DEDF839274B702D0839AA3
:1000880001D0838A74B502D0839801D0838874B371
:1000980002D0839601D0838674B102D0839401D0B4
:1000A800838465B302D0838001D083908382C2DFCA
:0E00B800839265A302D0B3DF01D0ACDF12004B
:0E00C6000001659373C074F0BCDF6583120007
:1000D4000B6A0A6A096A00500402F4CF09F0F3CFEC
:1000E40008F001500502F4CF0BF0F3CF0AF00050F2
:1000F4000502F3500926F4500A22E86A0B22015043
:100104000402F3500926F4500A22E86A0B2208C0BC
:1001140000F009C001F00AC002F00BC003F01200A5
:1001240010D0800E00016E6F1AD0C00E6E6F17D003
:10013400940E6E6F14D0D40E6E6F11D0800E6E6F4D
:100144000ED000016E51010AECE06E51020AEDE09E
:100154006E51030AEDE06E51040AEDE0EFD76F052E
:10016400006E6E51002600C06EF000C074F06ADFAD
:100174006593726B72517025E96E000E7121EA6EFF
:10018400EE520BE072517025E96E000E7121EA6E99
:0E019400EECF73F096DF722BEDD7658312006D
:0601A2000001659512004A
:1001A800000165A103D0010E006E01D0006A1200A3
:0601B80000016591120038
:1001BE00010E00016E6F010E6F6F570E706F000E05
:1001CE00716FA9DF020E6E6F020E6F6F140E006E4E
:1001DE00000E016E6AC004F0000E056E74DF1B0E79
:0E01EE000024706F000E0120716F95DF12006B
:1001FC00880ED56EB10ED76EE00ED66EF2AEF28EC4
:10020C00F2ACF28CD0AED08EF28AF194F294120051
:10021C009388938A938C938E000165956591120057
:10022C0095929590959495969598959A839283909E
:10023C00839A839883968394F0DEEFDEEEDE8386DA
:10024C0083848382F5DE8392E8DE8382F1DE8392FF
:10025C00E4DE8382EDDE8392E0DE83948382E8DE4B
:10026C008392DBDE8382E4DE83928396838A8382AD
:10027C00DFDE8392D2DE839A83848382D9DE8392FB
:10028C0083948382D5DE8392C8DE8382D1DE83920F
:10029C0083848382CDDE8392C0DE83948382C8DE26
:1002AC008392838A8388838683848382C1DE83924C
:0802BC00B4DE000165831200AD
:0602C40067C000F012000B
:1002CA006AC067F06BC068F06CC066F06DC064F01D
:0202DA00120010
:1002DC00000165A503D0010E006E01D0006A12006A
:0C02EC00B10ED76EE00ED66EF294120038
:1002F800000169B102D081B8698169B302D081BABD
:10030800698369B502D081BC698569B702D081BEAD
:10031800698769A104D081B802D06991658569A30C
:1003280026D081BA24D069936451675D016E026A50
:10033800000E025A800E0218006E800E005C02E168
:100348006851015C10E36451675D016E026A000E3A
:10035800025A800E0218006E800E005C02E166519F
:10036800015C01E202D068C067F06451675F69A56B
:1003780023D081BC21D0699564516725016E026A3A
:10038800000E0222800E006E800E0218005C02E150
:100398000150665D0DE364516725016E026A000E27
:1003A8000222000E021802E1000E011801E002D03C
:1003B80066C067F06451672769A704D081BE02D080
:0603C80069976581120037
:1003CE00926A936A2CDF0C0E746F37DE010E746F17
:0803DE0034DE0DDF1CDF12000C
:1003E6000900F5CFE6FF0006FBE10106F9E1120080
:1003F60000016A6B6B6B020E6C6F010E6D6F62DF34
:100406006ADF00521BE167DF005204E0CADE0052D9
:1004160001E005D054DF00C06AF0CEDEF4D7C1DEBD
:1004260000520BE0C6DE4BDF02D007D006D00050EC
:10043600000AFBE00050010AF9E0E2D7AFDE120045
:0C0446006AEC02F0C1DFD4DFFED7FFD764
:1004520000C01AF001C019F002C018F0156ED8CF12
:1004620016F0E0CF17F0F2A402D03FDF44DF1750BE
:10047200E06E1650D86E153A15381AC000F019C041
:0804820001F018C002F01000A7
:1004D40010EE1BF0490E006E010E016E8A0EF66ED0
:0E04E400040EF76E000EF86EF3EC01F012003D
:10048A002D3E4649415400000000000000000000D3
:10049A00000000002D3E464F5244000000000000BC
:1004AA0000000000000000002D3E474D0000000043
:0C04BA0000000000000000000000000036
:0D04C6002D3E4D4F4E5441444F52415300C6
:020000040030CA
:0E000000000C1F1EFF0381FF0FC00FE00F401A
:00000001FF
