:1000000096EF02F00000000000EF00F0000000009A
:0C00100000000000000000009CEF02F067
:0C001C00000000000000000000001200C6
:10002800240E0C6EB50E0D6E0D2EFED70C2EFCD7C1
:06003800000000001200B0
:0A003E00530E0D6E0D2EFED71200BA
:10004800000197BF02D0839A01D0838A97BD02D05E
:10005800839801D0838897BB02D0839601D083868A
:1000680097B902D0839401D0838476B702D0838075
:1000780001D083908382CEDF839297B702D0839A90
:1000880001D0838A97B502D0839801D0838897B32B
:1000980002D0839601D0838697B102D0839401D091
:1000A800838476B702D0838001D083908382B2DFC5
:0E00B800839276A702D0B4DF01D0BDDF120024
:0600C60000017695120016
:0E00CC000001769796C097F0B9DF7687120094
:0A00DA00F5DF010E976FB3DF12008F
:1000E40010D0800E0001916F1AD0C00E916F17D0FE
:1000F400940E916F14D0D40E916F11D0800E916F25
:100104000ED000019151010AECE09151020AEDE098
:100114009151030AEDE09151040AEDE0EFD7920505
:10012400006E9151002600C091F000C097F08ADF64
:100134007697956B95519325E96E000E9421EA6E9E
:10014400EE520BE095519325E96E000E9421EA6E70
:0E015400EECF96F0B9DF952BEDD7768712002F
:100162000B6A0A6A096A00500402F4CF09F0F3CF5D
:1001720008F001500502F4CF0BF0F3CF0AF0005063
:100182000502F3500926F4500A22E86A0B220150B4
:100192000402F3500926F4500A22E86A0B2208C02E
:1001A20000F009C001F00AC002F00BC003F0120017
:1001B200000176A503D0010E006E01D0006A120084
:1001C200F7DF005201E088DF010E916F010E926F9E
:1001D200190E936F000E946F84DF020E916F020E60
:1001E200926F140E006E000E016E90C004F0000EAD
:1001F200056EB6DF380E0024936F000E0120946F57
:0402020070DF120097
:10020600000176A303D0010E006E01D0006A120031
:10021600000176A103D0010E006E01D0006A120023
:06022600000176931200B6
:06022C00000176911200B2
:10023200E9DF005203E0010E006E07D0EBDF00524F
:0C02420003E0010E006E01D0006A120003
:10024E00B1DF005201E042DF030E916F010E926F9B
:0C025E00260E936F000E946F3EDF12001E
:10026A00A3DF005201E034DF030E916F010E926F9B
:0C027A002C0E936F000E946F30DF12000A
:0602860077C000F0120039
:10028C00F250026EF29E0500FF6A0150FE6E0050A5
:08029C00FD6E02BEF28E12009D
:1002A40086DF005201E017DF030E916F010E926F9B
:0C02B400320E936F000E946F13DF1200E7
:1002C00095929590959495969598959A839283900A
:1002D000839A839883968394A7DEA6DEA5DE838621
:1002E000838483829BDE83929FDE838297DE839268
:1002F0009BDE838293DE839297DE839483828EDEFD
:10030000839292DE83828ADE83928396838A8382BB
:1003100085DE839289DE839A838483827FDE839263
:10032000839483827BDE83927FDE838277DE839277
:100330008384838273DE839277DE839483826EDE8E
:100340008392838A838883868384838267DE839211
:080350006BDE0001768712004C
:10035800880ED56EB10ED76EE00ED66EF2AEF28E66
:10036800F2ACF28CD0AED08EF28AF194F2941200F4
:0603780000017685120071
:10037E004BDF00522FE156DF00520DE17DDF8CC0C6
:10038E00E1FF8DC0E2FF00C0E6FF8AC000F08BC027
:10039E0001F075DFF0D730DF00521BE03DDF6CDF80
:1003AE0000C001F0000E026E0136019002360136D9
:1003BE000190023601508E25E96E02508F21EA6EB1
:1003CE00EECF00F0EECF01F0EECF02F0EECF03F065
:0803DE0002D0CED724DF12008B
:1003E6008AC077F08BC078F08CC075F08DC074F041
:0203F6001200F3
:1003F8009388938A938C938E000176917693769561
:020408001200E0
:0C040A00B10ED76EE00ED66EF294120018
:10041600000179B102D081B8798179B302D081BA6D
:10042600798379B502D081BC798579B702D081BE4E
:10043600798779A105D081B803D07991768199DF42
:1004460079A30CD081BA0AD079937751785D05E209
:100456007751755D02E37451775F8BDF79A50CD018
:1004660081BC0AD079957551775D05E27851775D43
:1004760002E3745177277DDF79A705D081BE03D0CB
:080486007997768376DF1200FE
:10048E000900F5CFE6FF0006FBE10106F9E11200D7
:10049E00A40E00017E6F020E7F6F000E806F000EA5
:1004AE00816F4E0E826F020E836F000E846F000EF0
:1004BE00856F6A0E866F020E876F000E886F000EB4
:1004CE00896F8A6B8B6B020E8C6F010E8D6F84DFC2
:1004DE00C20E8A6F010E8B6F900E8C6F000E8D6F99
:1004EE007E0E8E6F000E8F6F43DF00C07AF001C05C
:1004FE007BF002C07CF003C07DF07AC000F07BC0C0
:06050E0001F0BDDE120049
:10051400926A936AD3DE0C0E976F94DD010E976F87
:0805240091DD18DF67DF120012
:0C052C00DEEC02F0F1DFB5DFFED7FFD7F8
:1005380000C018F0156ED8CF16F0E0CF17F0F2A46F
:1005480002D05FDF64DF1750E06E1650D86E153AA0
:08055800153818C000F0100076
:1005BC0010EE19F05B0E006E010E016E600EF66E01
:0E05CC00050EF76E000EF86E47EC02F01200FE
:0D0560002D3E4D4F4E5441444F524153002B
:06056D006D656E753200A1
:060573006D656E7533009A
:060579006D656E75310096
:10057F002D3E4649415400000000000000000000DD
:10058F00000000002D3E464F5244000000000000C6
:10059F0000000000000000002D3E474D000000004D
:0C05AF0000000000000000000000000040
:020000040030CA
:0E000000000C1F1EFF0381FF0FC00FE00F401A
:00000001FF
