:1000000065EF02F00000000000EF00F000000000CB
:0C00100000000000000000006BEF02F098
:0C001C00000000000000000000001200C6
:10002800240E0C6EB50E0D6E0D2EFED70C2EFCD7C1
:06003800000000001200B0
:0A003E00530E0D6E0D2EFED71200BA
:10004800000186BF02D0839A01D0838A86BD02D080
:10005800839801D0838886BB02D0839601D083869B
:1000680086B902D0839401D083846AB702D0838092
:1000780001D083908382CEDF839286B702D0839AA1
:1000880001D0838A86B502D0839801D0838886B34D
:1000980002D0839601D0838686B102D0839401D0A2
:1000A80083846AB702D0838001D083908382B2DFD1
:0E00B80083926AA702D0B4DF01D0BDDF120030
:0E00C60000016A9785C086F0BCDF6A871200D1
:0600D40000016A93120016
:1000DA0000016AA303D0010E006E01D0006A12006B
:0A00EA00F4DF010E866FABDF120099
:1000F40010D0800E0001806F1AD0C00E806F17D010
:10010400940E806F14D0D40E806F11D0800E806F47
:100114000ED000018051010AECE08051020AEDE0AA
:100124008051030AEDE08051040AEDE0EFD7810528
:10013400006E8051002600C080F000C086F082DF8F
:100144006A97846B84518225E96E000E8321EA6EDE
:10015400EE520BE084518225E96E000E8321EA6E93
:0E016400EECF85F0AEDF842BEDD76A87120058
:100172000B6A0A6A096A00500402F4CF09F0F3CF4D
:1001820008F001500502F4CF0BF0F3CF0AF0005053
:100192000502F3500926F4500A22E86A0B220150A4
:1001A2000402F3500926F4500A22E86A0B2208C01E
:1001B20000F009C001F00AC002F00BC003F0120007
:1001C20000016AA103D0010E006E01D0006A120084
:1001D20083DF005201E088DF010E806F010E816F24
:1001E2005A0E826F000E836F84DF020E806F020E42
:1001F200816F140E006E000E016E7FC004F0000EBF
:10020200056EB6DF190E0024826F000E0120836F87
:0402120070DF120087
:1002160000016AA503D0010E006E01D0006A12002B
:0602260000016A911200C4
:10022C00F4DF005203E0010E006E07D0C4DF005271
:0C023C0003E0010E006E01D0006A120009
:060248006CC000F0120082
:10024E00F250026EF29E0500FF6A0150FE6E0050E3
:08025E00FD6E02BEF28E1200DB
:100266009388938A938C938E00016A916A956A9318
:02027600120074
:10027800880ED56EB10ED76EE00ED66EF2AEF28E47
:10028800F2ACF28CD0AED08EF28AF194F2941200D5
:0602980000016A83120060
:10029E0091DF005238E1C3DF00520DE1CEDF7BC0AB
:1002AE00E1FF7CC0E2FF00C0E6FF79C000F07AC03B
:1002BE0001F0C6DFF0D7030E0001806F010E816FD3
:1002CE00550E826F000E836F0EDF9EDF00521AE016
:1002DE00B4DF00C001F0000E026E0136019002364E
:1002EE0001360190023601507D25E96E02507E21C5
:1002FE00EA6EEECF00F0EECF01F0EECF02F0EECFD1
:0A030E0003F002D0C5D788DF12000B
:1003180079C06CF07AC067F07BC068F07CC069F087
:020328001200C1
:10032A0095929590959495969598959A839283909F
:10033A00839A83988396839472DE71DE70DE838655
:10034A008384838266DE83926ADE838262DE83929C
:10035A0066DE83825EDE839262DE8394838259DE66
:10036A0083925DDE838255DE83928396838A8382BB
:10037A0050DE839254DE839A838483824ADE839298
:10038A008394838246DE83924ADE838242DE8392AC
:10039A00838483823EDE839242DE8394838239DEC3
:1003AA008392838A838883868384838232DE8392DC
:0803BA0036DE00016A87120023
:0C03C200B10ED76EE00ED66EF294120061
:1003CE0000016BB102D081B86B816BB302D081BAE0
:1003DE006B836BB502D081BC6B856BB702D081BECF
:1003EE006B876BA105D081B803D06B916A814DDF0D
:1003FE006BA30CD081BA0AD06B936C51675D05E28A
:10040E006C51685D02E369516C5F3FDF6BA50CD0E8
:10041E0081BC0AD06B9568516C5D05E267516C5DCD
:10042E0002E369516C2731DF6BA705D081BE03D083
:08043E006B976A852ADF1200AA
:100446000900F5CFE6FF0006FBE10106F9E112001F
:10045600FF0E00016D6FFF0E6E6F000E6F6F000EC8
:10046600706FFF0E716FFF0E726F000E736F000ECE
:10047600746FFF0E756FFF0E766F000E776F000EAE
:10048600786F796B7A6B020E7B6F010E7C6F41DFA2
:10049600D20E796F010E7A6F7F0E7B6F000E7C6F26
:0C04A6006D0E7D6F000E7E6FF7DE120001
:1004B200926A936A39DF0C0E866FC5DD010E866F74
:0804C200C2DDD9DECFDE12001D
:0C04CA00A6EC02F0F1DFC2DFFED7FFD786
:1004D60000C018F0156ED8CF16F0E0CF17F0F2A4D2
:1004E60002D06CDF71DF1750E06E1650D86E153AE9
:0804F600153818C000F01000D9
:10054C0010EE19F04E0E006E010E016EFE0EF66EE0
:0E055C00040EF76E000EF86E23EC02F0120093
:1004FE002D3E46494154000000000000000000005F
:10050E00000000002D3E464F524400000000000047
:10051E0000000000000000002D3E474D00000000CE
:0C052E00000000000000000000000000C1
:05053A0054455354007C
:0D053F002D3E4D4F4E5441444F524153004C
:020000040030CA
:0E000000000C1F1EFF0381FF0FC00FE00F401A
:00000001FF
