:10000000F9EF02F00000000000EF00F00000000037
:0C0010000000000000000000FFEF02F004
:0C001C00000000000000000000001200C6
:10002800240E0C6EB50E0D6E0D2EFED70C2EFCD7C1
:06003800000000001200B0
:0A003E00530E0D6E0D2EFED71200BA
:100048000001ADBF02D0839A01D0838AADBD02D032
:10005800839801D08388ADBB02D0839601D0838674
:10006800ADB902D0839401D083847BB702D083805A
:1000780001D083908382CEDF8392ADB702D0839A7A
:1000880001D0838AADB502D0839801D08388ADB3FF
:1000980002D0839601D08386ADB102D0839401D07B
:1000A80083847BB702D0838001D083908382B2DFC0
:0E00B80083927BA702D0B4DF01D0BDDF12001F
:0600C60000017B93120013
:0E00CC0000017B97ACC0ADF0B9DF7B8712005E
:1000DA0000017BA303D0010E006E01D0006A12005A
:1000EA000B6A0A6A096A00500402F4CF09F0F3CFD6
:1000FA0008F001500502F4CF0BF0F3CF0AF00050DC
:10010A000502F3500926F4500A22E86A0B2201502C
:10011A000402F3500926F4500A22E86A0B2208C0A6
:10012A0000F009C001F00AC002F00BC003F012008F
:10013A0010D0800E0001A76F1AD0C00EA76F17D07B
:10014A00940EA76F14D0D40EA76F11D0800EA76F8C
:10015A000ED00001A751010AECE0A751020AEDE016
:10016A00A751030AEDE0A751040AEDE0EFD7A8056D
:10017A00006EA751002600C0A7F000C0ADF05FDFF7
:10018A007B97AB6BAB51A925E96E000EAA21EA6EEB
:10019A00EE520BE0AB51A925E96E000EAA21EA6ED8
:0E01AA00EECFACF08EDFAB2BEDD77B871200D3
:0A01B80086DF010EAD6F44DF120078
:1001C20000017BA503D0010E006E01D0006A12006F
:1001D20083DF005201E0EFDF010EA76F010EA86F6F
:1001E2006E0EA96F000EAA6FA7DF020EA76F020E96
:1001F200A86F140E006E000E016EA6C004F0000E71
:10020200056E72DF320E0024A96F000E0120AA6F64
:0402120093DF120064
:1002160000017BA103D0010E006E01D0006A12001E
:0602260000017B911200B3
:06022C0082C000F0120088
:10023200F250026EF29E0500FF6A0150FE6E0050FF
:08024200FD6E02BEF28E1200F7
:10024A00E5DF005203E0010E006E07D0B5DF005271
:0C025A0003E0010E006E01D0006A1200EB
:1002660039DF005201E0A5DF030EA76F010EA86F6C
:0C027600210EA96F000EAA6F5DDF1200C0
:06028200A4C082F012008E
:1002880028DF005201E094DF030EA76F010EA86F6C
:0C029800290EA96F000EAA6F4CDF1200A7
:1002A4000001A45316E07C0EE16E000EE26E3150A4
:1002B400E126D8B0E22AA5C0E6FF312A7C0EE96E19
:1002C400000EEA6E3150E926D8B0EA2AEECF00F0EB
:1002D40011D0315000080DE231067C0EE96E000E9B
:1002E400EA6E3150E926D8B0EA2AEECF31F0006A3E
:0602F40001D0006A1200B7
:1002FA00EFDE005201E05BDF030EA76F010EA86F6D
:0C030A00190EA96F000EAA6F13DF12007D
:0603160000017B951200BE
:10031C00880ED56EB10ED76EE00ED66EF2AEF28EA2
:10032C00F2ACF28CD0AED08EF28AF194F294120030
:10033C009388938A938C938E00017B957B917B930E
:02034C0012009D
:06034E0000017B83120098
:1003540095929590959495969598959A8392839075
:10036400839A8398839683945DDE5CDE5BDE83866A
:100374008384838251DE839255DE83824DDE8392B1
:1003840051DE838249DE83924DDE8394838244DE90
:10039400839248DE838240DE83928396838A8382BB
:1003A4003BDE83923FDE839A8384838235DE8392AD
:1003B4008394838231DE839235DE83822DDE8392C1
:1003C4008384838229DE83922DDE8394838224DED8
:1003D4008392838A83888386838483821DDE8392C7
:0803E40021DE00017B871200FD
:0E03EC009CC081F09DC084F09EC083F0120082
:1003FA00E3DE005236E124DF00520DE112DFA0C035
:10040A00E1FFA1C0E2FF00C0E6FF9EC000F09FC06E
:10041A0001F00ADFF0D7FADE005222E002DF00C064
:10042A00A2F0FCDE010EA46FA2C0A5F036DFA2C0C6
:10043A0000F0000E016E0036009001360036009082
:10044A00013600509C25E96E01509D21EA6EEECFDF
:10045A0000F0EECF01F0EECF02F0EECF03F008D0BD
:10046A00C7D7A46BA56B19DF00C0A4F005DF4EDF68
:02047A0012006E
:10047C009CC0E1FF9DC0E2FF9EC0E6FF9FC0E6FF6F
:10048C00020E00019C25E16E000E9D21E26EA0C0C3
:10049C00E6FFA1C0E6FFA2C0E6FFA3C0E6FF120084
:0C04AC00B10ED76EE00ED66EF294120076
:1004B800000185B102D081B8858185B302D081BAA7
:1004C800858385B502D081BC858585B702D081BE7C
:1004D800858785A105D081B803D085917B8533DFD9
:1004E80085A30CD081BA0AD085938251815D05E23B
:1004F8008251845D02E38351825F25DF85A50CD09C
:1005080081BC0AD085958451825D05E28151825D66
:1005180002E38351822717DF85A705D081BE03D068
:0805280085977B8110DF1200B2
:100530000900F5CFE6FF0006FBE10106F9E1120034
:10054000FA0E0001906F020E916F000E926F000E76
:10055000936F660E946F020E956F000E966F000EED
:10056000976F880E986F020E996F000E9A6F000EAB
:100570009B6F860E9C6F000E9D6F900E9E6F000EFF
:100580009F6FD20EA06F010EA16FA60EA26F000E7C
:10059000A36F74DF9C6B020E9D6F010E9E6F26DFB2
:1005A000060E006E9C0EE16E000EE26E860EE96E87
:1005B000000EEA6EEECFE6FF0006FCE11EDF00C093
:1005C0008CF001C08DF002C08EF003C08FF08CC0A3
:0A05D00000F08DC001F02DDE1200D6
:1005DA00926A936ABADE0C0EAD6F31DD010EAD6F11
:0805EA002EDD97DEA6DE1200F3
:0C05F20044EC03F0F1DFA3DFFED7FFD7DD
:1005FE0000C018F0156ED8CF16F0E0CF17F0F2A4A9
:10060E0002D04DDF52DF1750E06E1650D86E153AFD
:08061E00153818C000F01000AF
:1006880010EE19F0620E006E010E016E260EF66E67
:0E069800060EF76E000EF86E98EC02F01200DF
:080626002D3E4D656E7531009B
:08062E002D3E4D656E75320092
:080636002D3E4D656E75330089
:01063E0000BB
:10063F002D3E46494154000000000000000000001C
:10064F00000000002D3E464F524400000000000005
:10065F0000000000000000002D3E474D000000008C
:0C066F000000000000000000000000007F
:0D067B002D3E4D4F4E5441444F524153000F
:020000040030CA
:0E000000000C1F1EFF0381FF0FC00FE00F401A
:00000001FF
