:10000000F0EF01F00000000000EF00F00000000041
:0C0010000000000000000000F6EF01F00E
:0A001C00530E0D6E0D2EFED71200DC
:10002600240E0C6EB50E0D6E0D2EFED70C2EFCD7C3
:06003600000000001200B2
:0C003C00000000000000000000001200A6
:10004800000172BF02D0839A01D0838A72BD02D0A8
:10005800839801D0838872BB02D0839601D08386AF
:1000680072B902D0839401D0838463B302D08380B1
:1000780001D083908382DEDF839272B702D0839AA5
:1000880001D0838A72B502D0839801D0838872B375
:1000980002D0839601D0838672B102D0839401D0B6
:1000A800838463B302D0838001D083908382C2DFCC
:0E00B800839263A302D0B3DF01D0ACDF12004D
:0E00C6000001639371C072F0BCDF638312000F
:1000D4000B6A0A6A096A00500402F4CF09F0F3CFEC
:1000E40008F001500502F4CF0BF0F3CF0AF00050F2
:1000F4000502F3500926F4500A22E86A0B22015043
:100104000402F3500926F4500A22E86A0B2208C0BC
:1001140000F009C001F00AC002F00BC003F01200A5
:1001240010D0800E00016C6F1AD0C00E6C6F17D007
:10013400940E6C6F14D0D40E6C6F11D0800E6C6F53
:100144000ED000016C51010AECE06C51020AEDE0A2
:100154006C51030AEDE06C51040AEDE0EFD76D0534
:10016400006E6C51002600C06CF000C072F06ADFB3
:100174006393706B70516E25E96E000E6F21EA6E09
:10018400EE520BE070516E25E96E000E6F21EA6E9F
:0E019400EECF71F096DF702BEDD76383120073
:0601A2000001639512004C
:1001A800000163A103D0010E006E01D0006A1200A5
:0601B8000001639112003A
:1001BE00010E00016C6F010E6D6F550E6E6F000E0D
:1001CE006F6FA9DF020E6C6F020E6D6F140E006E54
:1001DE00000E016E68C004F0000E056E74DF190E7D
:0E01EE0000246E6F000E01206F6F95DF12006F
:1001FC00880ED56EB10ED76EE00ED66EF2AEF28EC4
:10020C00F2ACF28CD0AED08EF28AF194F294120051
:10021C009388938A938C938E00016395639112005B
:10022C0095929590959495969598959A839283909E
:10023C00839A839883968394F0DEEFDEEEDE8386DA
:10024C0083848382F5DE8392E8DE8382F1DE8392FF
:10025C00E4DE8382EDDE8392E0DE83948382E8DE4B
:10026C008392DBDE8382E4DE83928396838A8382AD
:10027C00DFDE8392D2DE839A83848382D9DE8392FB
:10028C0083948382D5DE8392C8DE8382D1DE83920F
:10029C0083848382CDDE8392C0DE83948382C8DE26
:1002AC008392838A8388838683848382C1DE83924C
:0802BC00B4DE000163831200AF
:0602C40065C000F012000D
:1002CA0068C065F069C066F06AC064F06BC062F02D
:0202DA00120010
:1002DC00000163A503D0010E006E01D0006A12006C
:0C02EC00B10ED76EE00ED66EF294120038
:1002F800000167B102D081B8678167B302D081BAC3
:10030800678367B502D081BC678567B702D081BEB5
:10031800678767A104D081B802D06791638567A316
:100328000BD081BA09D067936551665D05E26551C6
:10033800645D02E36251655F67A50BD081BC09D09B
:1003480067956451655D05E26651655D02E362513A
:10035800652767A704D081BE02D067976381120022
:10036800926A936A5FDF0C0E726F6ADE010E726F1B
:0803780067DE40DF4FDF1200D9
:100380000900F5CFE6FF0006FBE10106F9E11200E6
:100390000001686B696B020E6A6F010E6B6F95DF6F
:1003A0009DDF00521BE19ADF005204E0FDDE0052A7
:1003B00001E005D087DF00C068F001DFF4D7F4DE8C
:1003C00000520BE0F9DE7EDF02D007D006D00050ED
:1003D000000AFBE00050010AF9E0E2D7E2DE120079
:0C03E0002FEC02F0C1DFD4DFFED7FFD706
:1003EC0000C018F0156ED8CF16F0E0CF17F0F2A4BD
:1003FC0002D076DF7BDF1750E06E1650D86E153AC0
:08040C00153818C000F01000C3
:10045E0010EE19F0490E006E010E016E140EF66EBE
:0E046E00040EF76E000EF86EC0EC01F01200E6
:100414002D3E464941540000000000000000000049
:10042400000000002D3E464F524400000000000032
:1004340000000000000000002D3E474D00000000B9
:0C044400000000000000000000000000AC
:0D0450002D3E4D4F4E5441444F524153003C
:020000040030CA
:0E000000000C1F1EFF0381FF0FC00FE00F401A
:00000001FF
