:10000000F3EF02F00000000000EF00F0000000003D
:0C0010000000000000000000F9EF02F00A
:0C001C00000000000000000000001200C6
:10002800240E0C6EB50E0D6E0D2EFED70C2EFCD7C1
:06003800000000001200B0
:0A003E00530E0D6E0D2EFED71200BA
:100048000001ADBF02D0839A01D0838AADBD02D032
:10005800839801D08388ADBB02D0839601D0838674
:10006800ADB902D0839401D083847BB702D083805A
:1000780001D083908382CEDF8392ADB702D0839A7A
:1000880001D0838AADB502D0839801D08388ADB3FF
:1000980002D0839601D08386ADB102D0839401D07B
:1000A80083847BB702D0838001D083908382B2DFC0
:0E00B80083927BA702D0B4DF01D0BDDF12001F
:0600C60000017B95120011
:0E00CC0000017B97ACC0ADF0B9DF7B8712005E
:1000DA000B6A0A6A096A00500402F4CF09F0F3CFE6
:1000EA0008F001500502F4CF0BF0F3CF0AF00050EC
:1000FA000502F3500926F4500A22E86A0B2201503D
:10010A000402F3500926F4500A22E86A0B2208C0B6
:10011A0000F009C001F00AC002F00BC003F012009F
:10012A0010D0800E0001A76F1AD0C00EA76F17D08B
:10013A00940EA76F14D0D40EA76F11D0800EA76F9C
:10014A000ED00001A751010AECE0A751020AEDE026
:10015A00A751030AEDE0A751040AEDE0EFD7A8057D
:10016A00006EA751002600C0A7F000C0ADF067DFFF
:10017A007B97AB6BAB51A925E96E000EAA21EA6EFB
:10018A00EE520BE0AB51A925E96E000EAA21EA6EE8
:0E019A00EECFACF096DFAB2BEDD77B871200DB
:0A01A8008EDF010EAD6F4CDF120078
:1001B20000017BA503D0010E006E01D0006A12007F
:1001C200F7DF005201E0EFDF010EA76F010EA86F0B
:1001D200190EA96F000EAA6FA7DF020EA76F020EFB
:1001E200A86F140E006E000E016EA6C004F0000E81
:1001F200056E72DF360E0024A96F000E0120AA6F71
:0402020093DF120074
:1002060000017BA303D0010E006E01D0006A12002C
:1002160000017BA103D0010E006E01D0006A12001E
:100226000001A45316E0810EE16E000EE26E7A51D3
:10023600E126D8B0E22AA5C0E6FF7A2B810EE96E48
:10024600000EEA6E7A51E926D8B0EA2AEECF00F01F
:1002560011D07A5100080DE27A07810EE96E000E80
:10026600EA6E7A51E926D8B0EA2AEECF7AF0006A29
:0602760001D0006A120035
:06027C0000017B9112005D
:060282007CC000F0120038
:10028800F250026EF29E0500FF6A0150FE6E0050A9
:08029800FD6E02BEF28E1200A1
:1002A00088DF005201E080DF030EA76F010EA86F08
:0C02B0002E0EA96F000EAA6F38DF12009E
:1002BC007ADF005201E072DF030EA76F010EA86F08
:0C02CC00720EA96F000EAA6F2ADF12004C
:1002D80096DF005203E0010E006E07D098DF00524F
:0C02E80003E0010E006E01D0006A12005D
:1002F4005EDF005201E056DF030EA76F010EA86F08
:0C030400260EA96F000EAA6F0EDF12007B
:0603100000017B931200C6
:10031600880ED56EB10ED76EE00ED66EF2AEF28EA8
:10032600F2ACF28CD0AED08EF28AF194F294120036
:100336009388938A938C938E00017B917B937B9514
:020346001200A3
:0603480000017B8512009C
:10034E0095929590959495969598959A839283907B
:10035E00839A83988396839460DE5FDE5EDE838667
:10036E008384838254DE839258DE838250DE8392AE
:10037E0054DE83824CDE839250DE8394838247DE8A
:10038E0083924BDE838243DE83928396838A8382BB
:10039E003EDE839242DE839A8384838238DE8392AA
:1003AE008394838234DE839238DE838230DE8392BE
:1003BE00838483822CDE839230DE8394838227DED5
:1003CE008392838A838883868384838220DE8392CA
:0803DE0024DE00017B87120000
:0E03E6009CC07FF09DC080F09EC07EF0120093
:1003F40010DF005236E16EDF00520DE140DFA0C095
:10040400E1FFA1C0E2FF00C0E6FF9EC000F09FC074
:1004140001F038DFF0D7F5DE005222E030DF00C013
:10042400A2F074DF010EA46FA2C0A5F0FADEA2C090
:1004340000F0000E016E0036009001360036009088
:10044400013600509C25E96E01509D21EA6EEECFE5
:1004540000F0EECF01F0EECF02F0EECF03F005D0C6
:0C046400C7D7A46BA56BDDDE07DF12001C
:100470009CC0E1FF9DC0E2FF9EC0E6FF9FC0E6FF7B
:10048000020E00019C25E16E000E9D21E26EA0C0CF
:10049000E6FFA1C0E6FFA2C0E6FFA3C0E6FF120090
:0C04A000B10ED76EE00ED66EF294120082
:1004AC0000017DB102D081B87D817DB302D081BACB
:1004BC007D837DB502D081BC7D857DB702D081BEA8
:1004CC007D877DA105D081B803D07D917B8136DFFE
:1004DC007DA30CD081BA0AD07D937C517F5D05E25F
:1004EC007C51805D02E37E517C5F28DF7DA50CD0C2
:1004FC0081BC0AD07D9580517C5D05E27F517C5D8D
:10050C0002E37E517C271ADF7DA705D081BE03D084
:08051C007D977B8313DF1200C1
:100524000900F5CFE6FF0006FBE10106F9E1120040
:10053400BC0E0001906F020E916F000E926F000EC0
:10054400936FA00E946F020E956F000E966F000EBF
:10055400976FF40E986F020E996F000E9A6F000E4B
:100564009B6F860E9C6F000E9D6F900E9E6F000E0B
:100574009F6FC20EA06F010EA16FA60EA26F000E98
:10058400A36F74DF9C6B020E9D6F010E9E6F29DFBB
:10059400060E006E9C0EE16E000EE26E860EE96E93
:1005A400000EEA6EEECFE6FF0006FCE121DF00C09C
:1005B4008CF001C08DF002C08EF003C08FF08CC0AF
:0A05C40000F08DC001F05EDE1200B1
:1005CE00926A936ABDDE0C0EAD6F37DD010EAD6F14
:0805DE0034DD9ADEA9DE1200F3
:0C05E6003EEC03F0F1DFA3DFFED7FFD7EF
:1005F20000C018F0156ED8CF16F0E0CF17F0F2A4B5
:1006020002D04DDF52DF1750E06E1650D86E153A09
:08061200153818C000F01000BB
:10067C0010EE19F0620E006E010E016E1A0EF66E7F
:0E068C00060EF76E000EF86E92EC02F01200F1
:0D061A002D3E4D4F4E5441444F5241530070
:080627002D3E4D656E75330098
:08062F002D3E4D656E75320091
:100637002D3E464941540000000000000000000024
:10064700000000002D3E464F52440000000000000D
:1006570000000000000000002D3E474D0000000094
:0C06670000000000000000000000000087
:080673002D3E4D656E7531004E
:01067B00007E
:020000040030CA
:0E000000000C1F1EFF0381FF0FC00FE00F401A
:00000001FF
