:1000000037EF01F00000000000EF00F000000000FA
:0C001000000000000000000060EF01F0A4
:0C001C00000000000000000000001200C6
:10002800240E0C6EB50E0D6E0D2EFED70C2EFCD7C1
:06003800000000001200B0
:0A003E00530E0D6E0D2EFED71200BA
:100048004ABE02D0839A01D0838A4ABC02D08398E0
:1000580001D083884ABA02D0839601D083864AB8F1
:1000680002D0839401D0838442B002D0838001D02F
:1000780083908382CFDF83924AB602D0839A01D0DD
:10008800838A4AB402D0839801D083884AB202D0C6
:10009800839601D083864AB002D0839401D08384AA
:1000A80042B002D0838001D083908382B3DF8392F1
:0C00B80042A002D0B5DF01D0BEDF120074
:0C00C400429049C04AF0BEDF42801200AA
:0A00D0009388938A938C938E12009C
:1000DA0095929590959495969598959A83928390F2
:1000EA00839A8398839683949ADF99DF98DF83862D
:1000FA00838483828EDF839292DF83828ADF839274
:10010A008EDF838286DF83928ADF8394838281DF14
:10011A00839285DF83827DDF83928396838A8382BB
:10012A0078DF83927CDF839A8384838272DF83926F
:10013A00839483826EDF839272DF83826ADF839283
:10014A008384838266DF83926ADF8394838261DF9A
:10015A008392838A83888386838483825ADF839205
:06016A005EDF428012007E
:10017000880ED56EB10ED76EE00ED66EF2ACF28C54
:0A018000D0AED08EF28AF294120085
:0C018A00B10ED76EE00ED66EF29412009B
:1001960043B002D081B8438043B202D081BA4382D1
:1001A60043B402D081BC438443B602D081BE4386A9
:1001B60043A002D081A8439043A202D081AA4392D1
:1001C60043A402D081AC439443A602D081AE4396A9
:0201D600120015
:1001D8000900F5CFE6FF0006FBE10106F9E1120090
:0C01E800926A936A76DFC0DF6FDF1200BE
:1001F4000FD0800E446E19D0C00E446E16D0940EEB
:10020400446E13D0D40E446E10D0800E446E0DD0C4
:100214004450010AEEE04450020AEEE04450030A5E
:10022400EEE04450040AEEE0F0D74504006E44507A
:10023400002600C044F000C04AF004DF4290486A3F
:1002440048504624E96E000E4720EA6EEE520BE059
:1002540048504624E96E000E4720EA6EEECF49F07E
:0A0264002FDF482AEDD74280120078
:10026E0085EC01F0BADF010E446E010E456E2D0EC7
:10027E00466E000E476EB7DF020E446E010E456EDF
:10028E00180E466E000E476EAEDF030E446E010E64
:10029E00456E180E466E000E476EA5DF040E446EB8
:1002AE00010E456E2D0E466E000E476E9CDFFFD77B
:0202BE00FFD768
:1002C000156ED8CF16F0E0CF17F0F2A402D05DDFA4
:1002D00062DF1750E06E1650D86E153A15381000D0
:10030A0010EE18F02A0E006E010E016EE00EF66E67
:0E031A00020EF76E000EF86EECEC00F0120012
:1002E0002D2D2D2D204A43204D4F44554C4F53204A
:0502F0002D2D2D2D0055
:1002F5002D2D2D2D2D2D2D2D2D2D2D2D2D2D2D2D29
:050305002D2D2D2D003F
:020000040030CA
:0E000000000C1F1EFF0381FF0FC00FE00F401A
:00000001FF
